:020000040000FA
:100000000C945D000C9485000C9485000C94850084
:100010000C9485000C9485000C9485000C9485004C
:100020000C9485000C9485000C9485000C9485003C
:100030000C9485000C9485000C9485000C9485002C
:100040000C948D040C9485000C94FD040C94D7043E
:100050000C9485000C9485000C9485000C9485000C
:100060000C9485000C9485000000000024002700FB
:100070002A0000000000250028002B0004040404CE
:100080000404040402020202020203030303030342
:10009000010204081020408001020408102001021F
:1000A00004081020000000080002010000030407FB
:1000B00000000000000000002F0511241FBECFEF3C
:1000C000D8E0DEBFCDBF11E0A0E0B1E0EEE1FAE1A3
:1000D00002C005900D92A234B107D9F722E0A2E444
:1000E000B1E001C01D92AC31B207E1F710E0CDE5FF
:1000F000D0E004C02197FE010E945C08CC35D107F6
:10010000C9F70E9479050C940D0D0C94000090E045
:10011000FC01EC55FF4F2491FC01E057FF4F349157
:10012000FC01E458FF4FE491EE23C9F0222339F09B
:10013000233001F1A8F4213019F1223029F1F0E047
:10014000EE0FFF1FEE58FF4FA591B4918FB7F894B3
:10015000EC91611126C030953E233C938FBF0895EA
:100160002730A9F02830C9F0243049F78091800069
:100170008F7D03C0809180008F7780938000DFCFD8
:1001800084B58F7784BDDBCF84B58F7DFBCF809125
:10019000B0008F778093B000D2CF8091B0008F7D78
:1001A000F9CF3E2BDACFCF93DF9390E0FC01E057FD
:1001B000FF4F249184589F4FFC0184918823D1F0F4
:1001C00090E0880F991FFC01E859FF4FA591B49169
:1001D000FC01EE58FF4FC591D49161110EC09FB73D
:1001E000F8948C91E22FE0958E238C932881E22362
:1001F000E8839FBFDF91CF9108958FB7F894EC917A
:10020000E22BEC938FBFF6CF8E50806480937C00FE
:1002100080917A00806480937A0080917A0086FDD4
:10022000FCCF80917800909179000895AF92BF92B1
:10023000CF92DF92EF92FF920F931F93CF93DF93B2
:100240006C017B018B01040F151FEB015E01AE18E1
:10025000BF08C017D10759F06991D601ED91FC9103
:100260000190F081E02DC6010995892B79F7C50130
:10027000DF91CF911F910F91FF90EF90DF90CF9082
:10028000BF90AF900895FC01538D448D252F30E031
:10029000842F90E0821B930B541710F0CF96089593
:1002A00001970895FC01918D828D981761F0A28DC0
:1002B000AE0FBF2FB11D5D968C91928D9F5F9F7386
:1002C000928F90E008958FEF9FEF08952FB7F894E5
:1002D00080915F0190916001A0916101B0916201F4
:1002E0002FBF80936B0190936C01A0936D01B0932D
:1002F0006E0183E691E00E94520197FF26C02FB75E
:10030000F89480915F0190916001A0916101B0919A
:1003100062012FBF40916B0150916C0160916D01A2
:1003200070916E01841B950BA60BB70B4091670172
:10033000509168016091690170916A018417950775
:10034000A607B707B0F28FEF9FEF0895FC01918DDC
:10035000828D981731F0828DE80FF11D858D90E028
:1003600008958FEF9FEF0895FC01918D228D892FC5
:1003700090E0805C9F4F821B91098F7399270895AD
:1003800083E691E00E94B40121E0892B09F420E08A
:10039000822F089580E090E0892B29F00E94C0010F
:1003A00081110C9400000895FC01A48DA80FB92FB1
:1003B000B11DA35ABF4F2C91848D90E001968F738D
:1003C0009927848FA689B7892C93A089B1898C91AC
:1003D000837080648C93938D848D981306C00288FB
:1003E000F389E02D80818F7D80830895EF92FF92C5
:1003F0000F931F93CF93DF93EC0181E0888F9B8D48
:100400008C8D98131AC0E889F989808185FF15C001
:100410009FB7F894EE89FF896083E889F989808124
:100420008370806480839FBF81E090E0DF91CF91F3
:100430001F910F91FF90EF900895F62E0B8D10E015
:100440000F5F1F4F0F731127E02E8C8D8E110CC084
:100450000FB607FCFACFE889F989808185FFF5CFCF
:10046000CE010E94D401F1CFEB8DEC0FFD2FF11DD9
:10047000E35AFF4FF0829FB7F8940B8FEA89FB890C
:1004800080818062CFCFCF93DF93EC01888D88236A
:10049000B9F0AA89BB89E889F9898C9185FD03C0E7
:1004A000808186FD0DC00FB607FCF7CF8C9185FFCC
:1004B000F2CF808185FFEDCFCE010E94D401E9CF3C
:1004C000DF91CF910895089590E080E00895FB01B9
:1004D00001900020E9F73197AF01461B570BDC0173
:1004E000ED91FC910280F381E02D09940F931F930D
:1004F000CF93DF93EC0188819981009759F02A818D
:100500003B812617370730F081E0DF91CF911F91B3
:100510000F9108958B016F5F7F4F0E9487090097AD
:1005200059F0998388831B830A832C813D81232B77
:1005300059F7FC011082E8CF80E0E7CFCF93DF933B
:10054000EC0188819981009711F00E94FE081982C0
:1005500018821D821C821B821A82DF91CF9108951E
:10056000CF93DF93EC0170E060E00E94760281118E
:1005700005C0CE01DF91CF910C949E021D821C829A
:1005800061E471E088819981DF91CF910C94580AE0
:100590009F92AF92BF92CF92DF92EF92FF920F9312
:1005A0001F93CF93DF93EC016B015A01790124175C
:1005B000350720F48B2D5901E42EF82E198218826C
:1005C0001B821A821D821C82CE010E94B002D601BB
:1005D00014960D911C91A016B10658F5E016F1067F
:1005E00008F48701D601ED91FC911197E00FF11FFE
:1005F00090801082ED90FC90EA0CFB1CE114F10459
:1006000071F0F70101900020E9F731975F01AE1812
:10061000BF08B501CE010E947602811117C0CE013C
:100620000E949E02F60180819181080F191FD80156
:100630009C92CE01DF91CF911F910F91FF90EF908F
:10064000DF90CF90BF90AF909F900895BD82AC8215
:10065000B701888199810E94580AE4CFFC0180810A
:100660009181009711F00C94FE080895CF93DF93C9
:10067000EC0160E08E810E94870061E08E810E9423
:10068000870060E08E810E9487008BE891E00197EF
:10069000F1F7DF91CF910895CF92DF92EF92FF9221
:1006A0000F931F93CF93DF936C017C0187E0E80EDB
:1006B000F11CD0E0C0E0062F10E0B8010C2E02C003
:1006C000759567950A94E2F76170F70181917F0152
:1006D0000E9487002196C430D10579F7C601DF91C9
:1006E000CF911F910F91FF90EF90DF90CF900C94DE
:1006F0003603CF92DF92EF92FF920F931F93CF9327
:10070000DF93EC01F62E642F8C810E9487008D818F
:100710008F3F19F060E00E9487000F2D10E08F8559
:1007200084FF25C06E0187E0C80ED11CF12CE12C9E
:10073000B8010E2C02C0759567950A94E2F76170B6
:10074000F60181916F010E948700FFEFEF1AFF0A07
:1007500088E0E816F10461F7CE01DF91CF911F9197
:100760000F91FF90EF90DF90CF900C943603B8017B
:1007700084E0759567958A95E1F7CE010E944C0358
:100780006F2DCE01DF91CF911F910F91FF90EF90D0
:10079000DF90CF900C944C0340E0682F80E092E013
:1007A0000C947903CF93DF93823029F490910F0258
:1007B000986090930F02809313021092140280E4C9
:1007C0008093150280E18093160280E580931702E2
:1007D00061E0809104020E94D300809105028F3F66
:1007E00019F061E00E94D30061E0809106020E944E
:1007F000D300C0E0D2E09E012050324080910F0231
:1008000084FD0BC084E090E021962817390744F45A
:1008100061E08E810E94D300EECF88E090E0F4CFBB
:100820008BE39DE00197F1F760E0809104020E9464
:10083000870060E0809106020E9487008091050297
:100840008F3F19F060E00E94870080910F0284FDC5
:1008500039C063E080E092E00E944C03CBE4D6E430
:10086000CE010197F1F763E080E092E00E944C0333
:100870002197F1F763E080E092E00E944C0383E56A
:1008800092E00197F1F762E080E092E00E944C0371
:1008900080910F0280620E94CC0384E0809310025A
:1008A0008CE00E94CC0381E00E94CC038BE39FE1AB
:1008B0000197F1F782E08093110286E0DF91CF91FA
:1008C0000C94CC0380620E94CC038BE496E40197E5
:1008D000F1F780910F0280620E94CC0383E592E0E1
:1008E0000197F1F780910F0280620E94CC03D0CF74
:1008F00090911302691710F06FEF690FE62FF0E087
:10090000E050FE4F9489890F80680C94CC0341E03D
:100910000E94790381E090E008951F920F920FB634
:100920000F9211242F933F938F939F93AF93BF9375
:1009300080915F0190916001A0916101B09162018D
:1009400030915E0123E0230F2D3758F50196A11D4C
:10095000B11D20935E0180935F0190936001A0938D
:100960006101B093620180915A0190915B01A09165
:100970005C01B0915D010196A11DB11D80935A01EA
:1009800090935B01A0935C01B0935D01BF91AF9127
:100990009F918F913F912F910F900FBE0F901F90BD
:1009A000189526E8230F0296A11DB11DD2CF1F92E4
:1009B0000F920FB60F9211242F933F934F935F9393
:1009C0006F937F938F939F93AF93BF93EF93FF9317
:1009D00083E691E00E94D401FF91EF91BF91AF9126
:1009E0009F918F917F916F915F914F913F912F9147
:1009F0000F900FBE0F901F9018951F920F920FB679
:100A00000F9211242F938F939F93EF93FF93E09175
:100A10007301F09174018081E0917901F0917A0184
:100A200082FD1BC0908180917C018F5F8F7320912C
:100A30007D01821741F0E0917C01F0E0ED59FE4F1D
:100A4000958F80937C01FF91EF919F918F912F91D2
:100A50000F900FBE0F901F9018958081F4CFE3E6A2
:100A6000F1E01382128288EE93E0A0E0B0E084838C
:100A70009583A683B7838AE091E09183808385EC98
:100A800090E09587848784EC90E09787868780EC58
:100A900090E0918B808B81EC90E0938B828B82EC49
:100AA00090E0958B848B86EC90E0978B868B118EF3
:100AB000128E138E148EE0E0F2E0138212828CE12B
:100AC00091E0918380838CE084838FEF85838BE03A
:100AD000868387E0878386E0808785E0818784E05E
:100AE00082871386148615861686178681E00C94F5
:100AF000D203CF93DF93CDB7DEB760970FB6F894EC
:100B0000DEBF0FBECDBF789484B5826084BD84B54E
:100B1000816084BD85B5826085BD85B5816085BDF8
:100B200080916E00816080936E00109281008091B0
:100B30008100826080938100809181008160809338
:100B40008100809180008160809380008091B1005D
:100B500084608093B1008091B00081608093B00088
:100B600080917A00846080937A0080917A0082601C
:100B700080937A0080917A00816080937A008091DE
:100B80007A00806880937A001092C10082E00E940F
:100B9000D20380911002982F9460909310028C6081
:100BA0000E94CC0360E08EE00E94D30060E08FE002
:100BB0000E94D300E0917301F091740182E0808380
:100BC000E0916F01F09170011082E0917101F0915C
:100BD00072018FEC808310927B01E0917701F0919C
:100BE000780186E08083E0917501F0917601808143
:100BF00080618083E0917501F09176018081886049
:100C00008083E0917501F091760180818068808316
:100C1000E0917501F091760180818F7D808381E084
:100C20000E94CC038BE39FE10197F1F760E081E044
:100C30000E94780464E271E080E092E00E94670222
:100C400061E081E00E9478046DE271E080E092E072
:100C50000E94670205E311E03EE4232E31E0332ECB
:100C60004AE4842E41E0942E2CEF422E23E0522EB3
:100C7000612C712C84E0F82E98E0E92E83E691E057
:100C80000E94B401181619060CF0B3C018861F8212
:100C90001A8619861C861B86CE0107960E94B00212
:100CA0000E946601CB84DC8497FD1DC08A309105CB
:100CB000D1F089831A822FEFC21AD20AB601CE016F
:100CC00007960E947602882359F32F8138858B85F9
:100CD0009C85BE016F5F7F4F820F931F0E94580A51
:100CE000DC86CB86DDCFCD2861F0CF80D8846CE266
:100CF00070E0C6010E944D0A9C012C193D09892B08
:100D000011F42FEF3FEF50E040E0BE01695F7F4FED
:100D1000CE0101960E94C80289819A81009709F448
:100D2000F7C00E9492079F938F937F936F931F93B7
:100D30000F931F92FF923F922F920E945F0ACE0163
:100D400001960E942E0360E08CE00E9478046EE41D
:100D500071E080E092E00E946702CB84DC840FB6F1
:100D6000F894DEBF0FBECDBFC114D10461F0AF80D7
:100D7000B8846CE270E0C5010E944D0AAC014A19CA
:100D80005B09892B11F44FEF5FEF4F5F5F4F9601C7
:100D9000BE01695F7F4FCE0101960E94C802898122
:100DA0009A81009709F4B9C00E9492079F938F938C
:100DB0007F936F931F930F931F92FF929F928F9237
:100DC0000E945F0ACE0101960E942E0361E08CE032
:100DD0000E9478046AE471E080E092E00E94670279
:100DE000CE0107960E942E030FB6F894DEBF0FBE09
:100DF000CDBF8EE00E9404015C0190935901809365
:100E000058018FE00E9404016C0190935701809378
:100E1000560124E630E0D5010E945508A301920155
:100E20000E94CE072D873E874F87588BAD84BE84A6
:100E300024E630E0D6010E945508A30192010E94E9
:100E4000CE0780915401909155018217930741F488
:100E50008091520190915301A816B90609F44BC034
:100E600030935501209354018D859E8590935301B5
:100E7000809352013F932F931F930F931F92FF92E2
:100E80003F922F920E945F0A809153018F9380912D
:100E900052018F931F930F931F92FF929F928F92F5
:100EA0000E945F0A809153018F93809152018F932A
:100EB000809155018F93809154018F9389E391E044
:100EC0009F938F931F92EF9282E491E09F938F9371
:100ED0000E945F0A62E471E083E691E00E9467028B
:100EE0006FE371E083E691E00E9467020FB6F89429
:100EF000DEBF0FBECDBF80E090E0892B09F4BECEEF
:100F00000E94C001882309F4B5CE0E940000ACCE37
:100F100060E070E080E090E006CF60E070E080E0AC
:100F200090E044CF1F93FC0199278827BC01E894E7
:100F300011911032E9F3193010F01E30C8F31B3252
:100F400051F01D3249F4689406C00E94B907610F40
:100F5000711D811D911D119110531A30B0F33EF493
:100F600090958095709561957F4F8F4F9F4F1F9102
:100F70000895592F482F372F262F660F771F881F68
:100F8000991F660F771F881F991F620F731F841F99
:100F9000951F660F771F881F991F0895052E97FBD1
:100FA0001EF400940E94E50757FD07D00E94240814
:100FB00007FC03D04EF40C94E5075095409530950E
:100FC00021953F4F4F4F5F4F0895909580957095B5
:100FD00061957F4F8F4F9F4F08952F923F924F9271
:100FE0005F926F927F928F929F92AF92BF92CF92B9
:100FF000DF92EF92FF920F931F93CF93DF93CDB7C2
:10100000DEB7CA1BDB0B0FB6F894DEBF0FBECDBF39
:1010100009942A88398848885F846E847D848C840A
:101020009B84AA84B984C884DF80EE80FD800C8113
:101030001B81AA81B981CE0FD11D0FB6F894DEBFF6
:101040000FBECDBFED010895A1E21A2EAA1BBB1B56
:10105000FD010DC0AA1FBB1FEE1FFF1FA217B30784
:10106000E407F50720F0A21BB30BE40BF50B661F9A
:10107000771F881F991F1A9469F76095709580955E
:1010800090959B01AC01BD01CF010895A29FB001D5
:10109000B39FC001A39F700D811D1124911DB29FAC
:1010A000700D811D1124911D08950E944608B7FFFF
:1010B0000895821B930B0895EE0FFF1F0590F49186
:1010C000E02D09940F931F93CF93DF938230910506
:1010D00010F482E090E0E0911A02F0911B0230E0FF
:1010E00020E0B0E0A0E0309799F42115310509F433
:1010F0004AC0281B390B24303105D8F58A819B81E1
:101100006115710589F1FB0193838283FE0111C092
:10111000408151810281138148175907E0F0481737
:10112000590799F4109761F012960C931297139641
:101130001C933296CF01DF91CF911F910F910895AB
:1011400000931A0210931B02F4CF2115310551F0C0
:101150004217530738F0A901DB019A01BD01DF01F5
:10116000F801C1CFEF01F9CF90931B0280931A02CF
:10117000CDCFFE01E20FF31F8193919322503109ED
:1011800039832883D7CF2091180230911902232B5D
:1011900041F4209102013091030130931902209310
:1011A000180220910001309101012115310541F40F
:1011B0002DB73EB74091040150910501241B350B1A
:1011C000E0911802F0911902E217F307A0F42E1B28
:1011D0003F0B2817390778F0AC014E5F5F4F24179B
:1011E000350748F04E0F5F1F5093190240931802C5
:1011F000819391939FCFF0E0E0E09CCFCF93DF937A
:101200000097E9F0FC01329713821282A0911A0232
:10121000B0911B02ED0130E020E01097A1F4208195
:101220003181820F931F20911802309119022817E3
:10123000390709F061C0F0931902E0931802DF91B9
:10124000CF910895EA01CE17DF07E8F54A815B8167
:101250009E0141155105B1F7E901FB83EA834991EC
:101260005991C40FD51FEC17FD0761F4808191815E
:101270000296840F951FE901998388838281938167
:101280009B838A83F0E0E0E012968D919C91139706
:101290000097B9F52D913C911197CD010296820FDF
:1012A000931F20911802309119022817390739F637
:1012B000309751F510921B0210921A02B093190246
:1012C000A0931802BCCFD383C28340815181840F85
:1012D000951FC817D90761F44E5F5F4F88819981C8
:1012E000480F591F518340838A819B819383828356
:1012F0002115310509F0B0CFF0931B02E0931A02DB
:101300009ECFFD01DC01C0CF13821282D7CFB0E0A7
:10131000A0E0EDE8F9E00C94EF078C01009751F4A0
:10132000CB010E9462088C01C801CDB7DEB7E0E1B5
:101330000C940B08FC01E60FF71F9C0122503109A9
:10134000E217F30708F49DC0D901CD91DC91119704
:10135000C617D70798F0C530D10530F3CE010497F2
:101360008617970708F3C61BD70B2297C193D19313
:101370006D937C93CF010E94FE08D6CF5B01AC1A1F
:10138000BD0A4C018C0E9D1EA0911A02B0911B0249
:10139000512C412CF12CE12C109731F58091180241
:1013A000909119028815990509F05CC046165706F8
:1013B00008F058C08091000190910101009741F41C
:1013C0008DB79EB74091040150910501841B950B88
:1013D000E817F90708F055C0F0931902E0931802D6
:1013E000F90171836083A0CF8D919C911197129622
:1013F0006C90129713967C901397A815B90559F520
:101400006C0142E0C40ED11CCA14DB0420F1AC0113
:101410004A195B09DA011296159780F0628273828D
:1014200051834083D9016D937C93E114F10471F0F1
:10143000D7011396FC93EE93129776CF22968C0FDA
:101440009D1FF90191838083F301EFCFF0931B027D
:10145000E0931A0269CF4816590608F42C017D0161
:10146000D3019ACFCB010E9462087C01009749F01A
:10147000AE01B8010E94440AC8010E94FE0887011B
:1014800053CF10E000E050CFFB01DC0102C001901F
:101490000D9241505040D8F70895FC018191861774
:1014A00021F08823D9F7992708953197CF0108951E
:1014B000FB01DC0101900D920020E1F70895AEE000
:1014C000B0E0E5E6FAE00C94FB070D891E898F89F0
:1014D000988D26E02C831A83098397FF02C080E051
:1014E00090E801979E838D83AE01455E5F4F698DC5
:1014F0007A8DCE0101960E948F0A4D815E8157FD43
:101500000AC02F813885421753070CF49A01020F45
:10151000131FF80110822E96E4E00C941708ABE03C
:10152000B0E0E5E9FAE00C94ED077C013B018A01AB
:10153000FC0117821682838181FFC8C1CE0101960A
:101540005C01F7019381F30193FD859193FF8191F4
:101550003F01882309F453C1853239F493FD859105
:1015600093FF81913F01853229F4B70190E00E94F9
:101570007F0CE7CF912C212C312CFFE1F31538F0B3
:101580008B3211F190F4803209F1833229F137FC6A
:101590003CC020ED280F2A3050F536FE20C08AE0EE
:1015A000989E200D1124922E06C08D3291F080332A
:1015B00071F7689430F8F30193FD859193FF819161
:1015C0003F018111DACF21C0689431F8689432F874
:1015D000F2CF689433F8EFCF689434F8ECCFEAE0B8
:1015E0002E9E200D1124222E689435F8E4CF8E32E1
:1015F00029F436FC04C1689436F8DDCF8C3619F432
:10160000689437F8D8CF8836B1F2982F9F7D9554DB
:101610009330E0F08336A1F18337C1F1833509F0CF
:1016200063C02801F2E04F0E511CF801C080D18048
:10163000692D70E036FC02C06FEF7FEFC6010E949B
:10164000690C4C01689437F882010AC00C5F1F4F87
:10165000FFE3F98388248394912C6501E89437F89B
:1016600033FE2DC0522C8114910471F5552009F4DC
:1016700068CFB70180E290E00E947F0C5A94F6CFC9
:10168000F801808189830E5F1F4FE4CF2801F2E0CB
:101690004F0E511CF801C080D180692D70E036FCDE
:1016A00002C06FEF7FEFC6010E94740C4C018201F3
:1016B000D5CFB70180E290E00E947F0C2A942814D5
:1016C000190409F0B0F7CECFF60137FC859137FE4B
:1016D00081916F01B70190E00E947F0C51105A94E4
:1016E000F1E08F1A9108BFCF843619F0893609F0DE
:1016F00077C0F80137FE6BC0608171818281938170
:101700000C5F1F4FF32DFF763F2E97FF09C090957A
:101710008095709561957F4F8F4F9F4F689437F8F4
:101720002AE030E0A5010E94AF0CC82ECA188C2C0C
:10173000432C36FE0CC0E89440F8C91440F434FE43
:1017400005C032FC03C0F32DFE7E4F2E892C44FED3
:1017500095C0FE01EC0DF11D8081803309F087C03A
:10176000242D297E422E842D8870582E43FC95C04E
:1017700040FE8FC09C2C821418F42C0C922C9818CC
:1017800044FE91C0B70180E390E00E947F0C42FECE
:1017900009C088E790E041FE02C088E590E0B7010B
:1017A0000E947F0CC91408F48AC0CA94D12C9FEF00
:1017B000C91AD90ACA0CDB1CF60182916F01B70164
:1017C00090E00E947F0CAC14BD04B1F74FCF608154
:1017D0007181072E000C880B990B0E5F1F4F92CF63
:1017E000D32CE894D4F82AE030E0853739F1232D62
:1017F000297FD22E8F3601F148F48835A9F0F70100
:10180000868197812B96E2E10C940908803749F094
:101810008837A9F7D4FE02C06894D2F820E130E0FE
:101820000DC06894D4F8F6CF34FE03C0822F8660D2
:10183000D82E20E132E002C028E030E0F801D7FEE7
:101840000FC060817181828193810C5F1F4FA50160
:101850000E94AF0CC82ECA183D2CE89437F867CF09
:101860006081718190E080E00E5F1F4FF0CF42FCFD
:1018700002C0839478CF8394839475CF842D867827
:1018800009F471CFF6CFB70180E290E00E947F0C9F
:1018900083948214C0F3512C73CF522C58188214A5
:1018A00008F46ECFF8CF842D867809F47BCF8BE2D5
:1018B00041FE80E247FC8DE2B70190E071CFB701B5
:1018C00080E390E00E947F0C9A946CCF8FEF9FEFA3
:1018D00099CFFC010590615070400110D8F78095B8
:1018E00090958E0F9F1F0895FC01615070400190EC
:1018F0000110D8F7809590958E0F9F1F08950F9334
:101900001F93CF93DF93182F092FEB018B8181FD5C
:1019100009C01FEF0FEF812F902FDF91CF911F9103
:101920000F91089582FF14C02E813F818C819D818B
:10193000281739073CF4E881F981CF010196998392
:10194000888310838E819F8101969F838E83E3CF4E
:10195000E885F985812F0995892BA1F3DACFFA0162
:10196000AA27283051F1203181F1E8946F936E7FDE
:101970006E5F7F4F8F4F9F4FAF4FB1E03ED0B4E0CF
:101980003CD0670F781F891F9A1FA11D680F791F10
:101990008A1F911DA11D6A0F711D811D911DA11D21
:1019A00020D009F468943F912AE0269F1124301931
:1019B000305D3193DEF6CF010895462F4770405DCC
:1019C0004193B3E00FD0C9F7F6CF462F4F70405D7B
:1019D0004A3318F0495D31FD4052419302D0A9F7D6
:1019E000EACFB4E0A6959795879577956795BA95D0
:1019F000C9F700976105710508959B01AC010A2E96
:101A000006945795479537952795BA95C9F7620F6C
:101A1000731F841F951FA01D0895F894FFCF000029
:101A20001C02800000000000F60116014301430281
:101A3000B4015201A60100000000870416016402EF
:101A40006302566F6C756D656E3A004272696C6C1C
:101A50006F3A002533640025642C2564000D0A00CC
:107E0000112484B714BE81FFF0D085E080938100F7
:107E100082E08093C00088E18093C10086E0809377
:107E2000C20080E18093C4008EE0C9D0259A86E02C
:107E300020E33CEF91E0309385002093840096BBD3
:107E4000B09BFECF1D9AA8958150A9F7CC24DD24C4
:107E500088248394B5E0AB2EA1E19A2EF3E0BF2EE7
:107E6000A2D0813461F49FD0082FAFD0023811F036
:107E7000013811F484E001C083E08DD089C08234E0
:107E800011F484E103C0853419F485E0A6D080C0E4
:107E9000853579F488D0E82EFF2485D0082F10E0AE
:107EA000102F00270E291F29000F111F8ED06801E7
:107EB0006FC0863521F484E090D080E0DECF843638
:107EC00009F040C070D06FD0082F6DD080E0C81688
:107ED00080E7D80618F4F601B7BEE895C0E0D1E017
:107EE00062D089930C17E1F7F0E0CF16F0E7DF06D8
:107EF00018F0F601B7BEE89568D007B600FCFDCFD4
:107F0000A601A0E0B1E02C9130E011968C91119780
:107F100090E0982F8827822B932B1296FA010C0160
:107F200087BEE89511244E5F5F4FF1E0A038BF0790
:107F300051F7F601A7BEE89507B600FCFDCF97BE46
:107F4000E89526C08437B1F42ED02DD0F82E2BD052
:107F50003CD0F601EF2C8F010F5F1F4F84911BD097
:107F6000EA94F801C1F70894C11CD11CFA94CF0C13
:107F7000D11C0EC0853739F428D08EE10CD085E9AC
:107F80000AD08FE07ACF813511F488E018D01DD067
:107F900080E101D065CF982F8091C00085FFFCCF94
:107FA0009093C60008958091C00087FFFCCF809118
:107FB000C00084FD01C0A8958091C6000895E0E648
:107FC000F0E098E1908380830895EDDF803219F02E
:107FD00088E0F5DFFFCF84E1DECF1F93182FE3DFCA
:107FE0001150E9F7F2DF1F91089580E0E8DFEE27F6
:047FF000FF270994CA
:027FFE00040479
:00000001FF
